0AMBBCOURTS              03052010                                                                                                                     
1030520101436230000000005100844005023302        690101085113        05030397623903RA01                                                             165
1030520101830510000000009000840000265216        650405085669        05030561993903RA09                                                             178
1030520101005100000000036000817015398761        781215145288        05030143363903RA05                                                             159
1030520101057270000000011000836002634791        850825065230        05030200673903ER28                                                             167
9000040000000061100                                                                                                                         0000000669
