399920712220100503750    00000000000010000C070846004416061                                          BO                  
399920712220100503750    00000000000005000C050514000279831      810727135198                        BO                  
399920712220100503750    00000000000006400C228520001846881                                          BO                  
399920712220100503750    00000000000004000C228520001846882                                          BO                  
399920712220100503750    00000000000010000C142521000061163                                          BO                  
399920712220100503750    00000000000011000C228520001743101      3999207122                          BO                  
399920712220100503750    00000000000010000C122816003646971                                          BO                  
399920712220100503750    00000000000019000C124811015264851                                          BO                  
399920712220100503750    00000000000006500C133812010034601                                          BO                  
399920712220100503750    00000000000010000C133812009325843                                          BO                  
399920712220100503750    00000000000015000C183508000861751                                          BO                  
399920712220100503745    55901100000015000C887954001932601                                          BG                  
399920712220100503745    55908000000010900C887894002711431                                          BG                  
399920712220100503745    56113700000015000C887817005553032                                          BG                  
399920712220100503745    56135400000015000C887817005553031                                          BG                  
399920712220100503745    57192500000013100C887810021449221                                          BG                  
399920712220100503745    57310400000018000C887957000446221                                          BG                  
399920712220100503745    57945400000018000C887801018463821                                          BG                  
399920712220100503745    58704800000030000C887540023587441                                          BG                  
399920712220100503745    59852700000019000C887897010261741                                          BG                  
399920712220100503745    62319000000021500C887817016163511                                          BG                  
399920712220100503745    64226600000031750C887813026673431                                          BG                  
399920712220100503745    64764600000012300C887811015680651                                          BG                  
399920712220100503745    65764500000005000C887520001995531                                          BG                  
399920712220100503745    66863500000020000C887844003705553                                          BG                  
399920712220100503745    67893400000025000C887801021443751                                          BG                  
399920712220100503745    72899700000030000C887894002220131                                          BG                  
399920712220100503745    73347000000013190C887817016251261                                          BG                  
399920712220100503745    75577100000010900C887810003817165                                          BG                  
399920712220100503745    75596600000013400C887810021344411                                          BG                  
399920712220100503745    75612200000008800C887810022323641                                          BG                  
399920712220100503745    75780100000008300C887813025902751                                          BG                  
399920712220100503745    75808200000010000C887813005765491                                          BG                  
399920712220100503745    76965200000008700C887894002220131                                          BG                  
399920712220100503745    78072900000023000C887895003234431                                          BG                  
399920712220100503745    79057300000017200C887954001206971                                          BG                  
399920712220100503745    79537200000017370C887844014871031                                          BG                  
399920712220100503745    80248600000017200C887810020598691                                          BG                  
399920712220100503745    82241200000016300C887975001538281                                          BG                  
399920712220100503906    00000000000600000D000PBB-STP122          S                                 B                   
20100500040-00000291900001100000106900000280000057081000000000000000000000000000000000PBBCOURTSM                        
