413COURTS MAMMOTH BERHAD         03052010MAYBANK                                                                                                                                                       0
413MOHD BASIL ABDULLAH      69083113539700000015100500003214991                                                                                                                                040520101
413MARIANA BOHARI           76030413628400000014500500004122811                                                                                                                                040520101
413SAHMAT BIN BUJANG        75061913552700000004000502000673431                                                                                                                                040520101
413BOLLIN ANAK DUJU         79083113587000000018700502001112851                                                                                                                                040520101
413MS KORIATI LEEN          K0201887    00000012700502001137111                                                                                                                                040520101
413RABIAH BINTI JOHANIE     75031213596000000011000514000361933                                                                                                                                040520101
413KHAIRUL IZHAM MD NOH     79072114543700000004700514000868834                                                                                                                                040520101
413TEFULLY AYU              75032513501100000018000514002460601                                                                                                                                040520101
413MARJORIE HENRY @ VIVIAN  77050712523400000020000519000367941                                                                                                                                040520101
413NOR AZHAN BIN ABDUL      69043002535700000007000520001418582                                                                                                                                040520101
413TUAN ROHAIDI             77072303636700000005700540002183191                                                                                                                                040520101
413TUAN ROHAIDI             77072303636700000005300540002183192                                                                                                                                040520101
413MD FAKRY HANIES BIN HANAF82032403516700000010000540002459751                                                                                                                                040520101
413RAMZAN BIN IBRAHIM @ AHMA70010511569700000005000548000549202                                                                                                                                040520101
413MR MUHAMAD RASHAIDI HAMID5063156     00000013000549001430561                                                                                                                                040520101
413NOR FAIZAL BIN ABDULLAH  76062101519500000008000801018612811                                                                                                                                040520101
413FAIZAH ABU BAKAR         79111801547200000006000801020131771                                                                                                                                040520101
413MASLIZA ZAINAL ABIDIN    71011004528200000010000801020329711                                                                                                                                040520101
413KHAIRUL FARIZ B MOHD KHAI75070103623700000018200801020410181                                                                                                                                040520101
413NORAINI BINTI ABDUL JALIL77122701662800000019000801020443191                                                                                                                                040520101
413FIRDAUS BIN IDRIS @ MANAS70121201504700000015000801020595851                                                                                                                                040520101
413SITI YUSLIZA BINTI SIKH M78061206514800000013000801020963161                                                                                                                                040520101
413NASRULLAH SAIRI          68122110515300000025000801021123101                                                                                                                                040520101
413KHAIROL AB MAJID         79041508620500000020600801021377151                                                                                                                                040520101
413KHAIROL AB MAJID         79041508620500000014100801021377291                                                                                                                                040520101
413MOHAMED RAHIMY ALI BIN WA83090301555700000010000801021457421                                                                                                                                040520101
413JAYPIRAKAS AL SAMINATAN  77082401644500000028400801021684831                                                                                                                                040520101
413IDORA M NOR              76082601742600000005600802007239831                                                                                                                                040520101
413HAFIZOL BIN SAMSUDIN     84090901598700000020200802009412271                                                                                                                                040520101
413IDORA M NOR              76082601742600000029200802009421551                                                                                                                                040520101
413FARATINNA BINTI ABDUL WAH81112901605400000007000802009552261                                                                                                                                040520101
413HAMIZAN HARUN            77051201614700000024200806005809111                                                                                                                                040520101
413JUAINA BINTI MD JAIS     76121204504800000010400807004609845                                                                                                                                040520101
413ROMIZAN BIN ADAM         A2869902    00000005300807004972905                                                                                                                                040520101
413MIMI HAIDAZATUL ZUHANARIA76012404527000000011000807008615541                                                                                                                                040520101
413MUSTAFAR BIN MAHAT       83011806567100000005000807008811561                                                                                                                                040520101
413MOHD HUSRY BIN ABDOL SEMA82082714559500000012100807008866681                                                                                                                                040520101
413VEENU CHITTY A/L RAMAN CH81063004516100000026000807009097411                                                                                                                                040520101
413AZZURI BINTI NASER       75060807578400000003800807009100901                                                                                                                                040520101
413MOHD HASNAN ABD RAHIM    A0162176    00000019940807011037101                                                                                                                                040520101
413SAIFUL FAIZAL BIN KHALID 77071414587900000020000807011219721                                                                                                                                040520101
413NOR AZLIN BINTI SHAFII   85021306585400000005700808001900371                                                                                                                                040520101
413NOR AZLIN BINTI SHAFII   85021306585400000008000808001900372                                                                                                                                040520101
413NOR AZLIN BINTI SHAFII   85021306585400000006900808001900373                                                                                                                                040520101
413MS NORIMAH OTHMAN        5240110     00000018200808006256971                                                                                                                                040520101
413MOHAMAD SUHAIMI BIN MOHD 87010208510500000015000808006529211                                                                                                                                040520101
413MOHAMAD AZAM BIN IBRAHIM 76050202621100000005300809000109343                                                                                                                                040520101
413FAUZIAH BINTI ABDUL RAHMA73060406521400000012000809000805293                                                                                                                                040520101
413FAUZIAH BINTI ABDUL RAHMA73060406521400000004000809000805294                                                                                                                                040520101
413AZMAH BINTI SAJAT @ ALI  68091801534800000010000810013029842                                                                                                                                040520101
413NORASMAWATI BINTI ABAS   RF107164    00000021300810014281324                                                                                                                                040520101
413SATINAH BTE HASSAN       66101771520400000015000810017107171                                                                                                                                040520101
413MAZURA BTE MAJID         A2888075    00000015000810017358031                                                                                                                                040520101
413NORAZLIN ABDUL AZIZ      71081001534000000018000810017390581                                                                                                                                040520101
413ZARABIZAN B ZAKARIA      73112802504700000040400810017430351                                                                                                                                040520101
413MOHD HELMI AFENDI BIN ZAI80091706534700000011400810017529921                                                                                                                                040520101
413MR ZULHAIMI ZAKARIA      64043007503300000023400810017857011                                                                                                                                040520101
413NURHAIRANI BINTI HOOD    80042005537000000025000810018026341                                                                                                                                040520101
413MS IAINI BAHARIM         7088821     00000013300810018124041                                                                                                                                040520101
413NORAIZARRINA BINTI BURHAN77100101658800000027000810020681801                                                                                                                                040520101
413SYARHAN HUMAIZI BIN HALIM79032902513100000012000810020761081                                                                                                                                040520101
413NOR RAHIZA BINTI MOHAMED 73042408644800000017500810020983271                                                                                                                                040520101
413MUHAMMAD AIMAN SUREN BIN 75121014543300000049300810021293911                                                                                                                                040520101
413MUHAMMAD ERFI BIN ZAINIAL84102214665700000017800810021368311                                                                                                                                040520101
413MR ZULKIFLY AHMAD        5835473     00000012000810021613661                                                                                                                                040520101
413ZAFRUL-IDHAM BIN MOHD ZAH76060210510100000025000810021618531                                                                                                                                040520101
413MOHD ZAABA BIN DIN       83052702585700000012300810021662511                                                                                                                                040520101
413MARIA FARINNA BINTI ZAINA74122206502800000015110810022303151                                                                                                                                040520101
413MR MIOR AZMAN M ABU BAKAR62102108549900000015000810022324621                                                                                                                                040520101
413MR MIOR AZMAN M ABU BAKAR62102108549900000015000810022324621                                                                                                                                040520101
413MARZUKI ISHAK            74051605500700000015000811006735923                                                                                                                                040520101
413NORAZLIN MAT SALLEH      82021010547000000013100811009444744                                                                                                                                040520101
413SAKTHI KUMAR A/L RAMADAS 78030101572500000031000811011251901                                                                                                                                040520101
413MOHD RADZI BIN ROSLI     86100656505900000008700811011366631                                                                                                                                040520101
413SHAMSUL AIZAT MOHD BASAR 69011010567300000050000811015118351                                                                                                                                040520101
413ANALIZA BINTI KASSIM     75100511510400000002950811015122451                                                                                                                                040520101
413NOR DIANA RAMLI          79121814535400000020000811015152071                                                                                                                                040520101
413VICTORIA A/P VEVEHANANDA 76112208661200000017000811015218771                                                                                                                                040520101
413MUHAMMAD ROHIZAL BIN MOHD80021301662700000029000811015472271                                                                                                                                040520101
413SITI ZALEHA BINTI RAHMAT 80070614520800000017000811015693511                                                                                                                                040520101
413DANISH YAQZAN JOGINDER BI76083008592300000033000811015773271                                                                                                                                040520101
413AHMAD HAMADA HALIMAHSHARI82081602609900000030000811015960181                                                                                                                                040520101
413SANTHI A/P ARUMUGAM      84030514527000000023400811015983611                                                                                                                                040520101
413NORAINI BINTI HUSSIN     82062314597200000010000811016007871                                                                                                                                040520101
413NORAINI BINTI HUSSIN     82062314597200000010000811016008401                                                                                                                                040520101
413FELICIA CHONG KAT FOON   75071612532000000023000811016125921                                                                                                                                040520101
413NOR SHAMSUL QIBYATI BINTI78031208766000000020000812007814603                                                                                                                                040520101
413ZURAIMI IDRIS            68032205500700000014900812008582032                                                                                                                                040520101
413MANIRAMAN A/L YEESPANAN  84092310523300000020000812010322121                                                                                                                                040520101
413PUNITHA A/P RAMACHANDARAN80062110568800000013400812010439881                                                                                                                                040520101
413NANDANI WONG CHOON SIM   76052510550200000015080812030606281                                                                                                                                040520101
413ASIAH BINTI MOHD RIDZUAN 71122708623400000030000812030739881                                                                                                                                040520101
413MR RAJDAV SINGH J.S.     75033010516700000032000812031260301                                                                                                                                040520101
413JALINAH TOROT            72050810535200000013500812031562871                                                                                                                                040520101
413HADIJAH BINTI HASSAN     70051808523800000009000812031703901                                                                                                                                040520101
413YUSRI BIN MAT TAHA       75072108591700000020000813003483392                                                                                                                                040520101
413WAN NORJANNAH AWANG LONG 72062402547200000015000813005251132                                                                                                                                040520101
413AZIZAH BINTI AZRAAI      83051508578000000011000813005599261                                                                                                                                040520101
413MD ROSSIDY MOHD NOOR     76070902569700000007000813005729841                                                                                                                                040520101
413NORZALINA BINTI MOHD ALIA84111310542000000009000813025896521                                                                                                                                040520101
413MOHD RIZAL BIN MOHAMAD SU78101810586900000035000813026121091                                                                                                                                040520101
413PUTERI YASIMAH BINTI MEGA58121871528600000015000813026168421                                                                                                                                040520101
413SAIFUL HISHAM BIN ABDUL R77110810560100000009500813026324871                                                                                                                                040520101
413NOR ASIKIN BINTI SHAHARUM81070308598200000015000813026358861                                                                                                                                040520101
413MASAINI BINTI SAHAK      75091904506400000017000813026443111                                                                                                                                040520101
413MARLINA BINTI MAHFODZ    85061106519800000017100813026451411                                                                                                                                040520101
413MOHD MAZAHAR BIN JAAFAR  83012702506500000025000813026508661                                                                                                                                040520101
413BAHARIN BIN ABD HAMID    81053001529900000016000813026548681                                                                                                                                040520101
413YUSRI BIN MAT TAHA       75072108591700000018000813026615471                                                                                                                                040520101
413P GUNASEGARAN A/L PERIASA76012801649300000022000813026907221                                                                                                                                040520101
413MR AHMAD AZHAR MD SALLEH 7045692     00000018000813026958931                                                                                                                                040520101
413MALZIANA BT KAMAL        83092613573800000015000814002384455                                                                                                                                040520101
413AZMI BIN SAMSUDIN        A0493022    00000010300814005668731                                                                                                                                040520101
413SUNIRA HAMZAH            75102003544400000009100814007311451                                                                                                                                040520101
413A JAILANI BIN CHE ABAS   73061106535100000018500815001285653                                                                                                                                040520101
413HASNIZAN BIN HASAN       76101410584700000010000815003366552                                                                                                                                040520101
413HASNIZAN BIN HASAN       76101410584700000010000815003366553                                                                                                                                040520101
413A JAILANI BIN CHE ABAS   73061106535100000008000815024261771                                                                                                                                040520101
413ZAZALINA MOHD ZAMAN      A2613051    00000005000816002532522                                                                                                                                040520101
413ROZILAWATI BINTI MOHAMAD 81011614518600000032000816003028374                                                                                                                                040520101
413CHE AZHANAFIZA BINTI CHE 75011211577000000014150816003808481                                                                                                                                040520101
413HAREINDREN A/L SELVARATNA80090504510300000010000816003952911                                                                                                                                040520101
413HAREINDREN A/L SELVARATNA80090504510300000006000816003952912                                                                                                                                040520101
413HAREINDREN A/L SELVARATNA80090504510300000011300816003978431                                                                                                                                040520101
413NOR HAYATI L YUSOF       60022802547400000022400816004066681                                                                                                                                040520101
413MS YASMINE ISA           79080709510000000010000816004099721                                                                                                                                040520101
413MS AIDILIANA MUSA        77100314566600000012500816013887081                                                                                                                                040520101
413KHAIRUL NISAK BINTI ISMAI80061107539000000016000816014235051                                                                                                                                040520101
413NIRMALA A/P RAJAMANIKAM  81071310543000000027570816014502991                                                                                                                                040520101
413SURIYANI BINTI MAT HASHIM81013014516600000010000816014564701                                                                                                                                040520101
413KLINIK SHAIFFUDDIN       665203      00000020830816014624141                                                                                                                                040520101
413NIK HILMIZAM NIK ISMAIL  76031611518100000012000816014664161                                                                                                                                040520101
413ROHASLIN BINTI MOHAMAD   79071804539800000012550816014774671                                                                                                                                040520101
413MOHD SHAH AZNAN BIN ABDUL80081905523300000013860816014774981                                                                                                                                040520101
413MOHD SHAH AZNAN BIN ABDUL80081905523300000011810816014863601                                                                                                                                040520101
413MR NAZRI HASHIM          74081901572300000014000817000699742                                                                                                                                040520101
413MARHAIDA ABDUL KARIM     67011008591800000009600817003944712                                                                                                                                040520101
413MASTAWA BINTI MOHD YUSOF 73042810555400000013000817005019211                                                                                                                                040520101
413SYAFIZAL ANUAR BIN ABDULL79062805500700000005000817005054361                                                                                                                                040520101
413MDM ALIZAH BAHRUM        74120201648000000020000817005141951                                                                                                                                040520101
413MS NOR ASHIKIN SULAIMAN  61121206517600000025848817005212011                                                                                                                                040520101
413MS NOR ASHIKIN SULAIMAN  61121206517600000012848817005212012                                                                                                                                040520101
413NOOR AFIZA BINTI KAMARULZ84060908577200000020000817005522571                                                                                                                                040520101
413MARHAIDA ABDUL KARIM     67011008591800000007400817015183921                                                                                                                                040520101
413CHE MOHD MAHADI BIN CHE O79111414540500000030000817015187161                                                                                                                                040520101
413SHAIRI KAMAL MOHD YUSOF  80120414565900000027000817015451571                                                                                                                                040520101
413MR NORASMAN KAMIS        127854      00000020000817015785891                                                                                                                                040520101
413MOHD ZHARIF BIN MAT MAHIR87070610502300000012000817016223741                                                                                                                                040520101
413NORIDAH BINTI BAHARUDIN  78082708541000000030000817016315381                                                                                                                                040520101
413KHAIRUL BIN ARIFIN       73091511530300000023000817016437771                                                                                                                                040520101
413NURWATI BINTI NORDIN     83061012523400000011300817016525101                                                                                                                                040520101
413ZAIFIWAN BIN MAT ZIN     77012111561500000015000817016576811                                                                                                                                040520101
413MS NOR ASHIKIN SULAIMAN  61121206517600000023980817016673221                                                                                                                                040520101
413MUHD SHAKIRIN BIN IBRAHIM85102214662100000022000817016718591                                                                                                                                040520101
413MS ZARINA RUSLAN         77032210505000000020000817016959981                                                                                                                                040520101
413JAMALIAH KASSIM          77081810514200000012200819002747041                                                                                                                                040520101
413NOR ASWANI AWANG         69031802557600000010000819003079001                                                                                                                                040520101
413MR HERMAN ABU BAKAR      68072806511700000005300836002735261                                                                                                                                040520101
413MR NAZMI SAHAK           A2702138    00000015000836022524741                                                                                                                                040520101
413NOR HASLINDA BINTI ABDULL85031903518600000013000836022745781                                                                                                                                040520101
413REDANG MESRA AND TRADING TR0062780P  00000013000837001104165                                                                                                                                040520101
413MAHANI BINTI MOHAMAD     66081111524400000010000837002117723                                                                                                                                040520101
413NORFAZILAH BINTI ISNIN   79021401504800000007000837004093441                                                                                                                                040520101
413RAMLAH BINTI DRAMAN      69061311506400000010000837004294021                                                                                                                                040520101
413SAHARIYANTI BINTI TEHA   82060101554400000011000837004322701                                                                                                                                040520101
413ZULKEFLI BIN MAMAT       66080303578900000012200837004729461                                                                                                                                040520101
413MOHD DZOHORI             77090206581700000025500839002150041                                                                                                                                040520101
413SALRINA BINTI MOHAMAD    73032308539000000010000840002851911                                                                                                                                040520101
413HAMZAH ABDUL MATHEEN     61053002524700000023300843003872801                                                                                                                                040520101
413MR MOHD SYUKOR AHMAD     75052207518500000028000843004705191                                                                                                                                040520101
413MDM SITI RUSSALAMIAH     50012208594800000014400844001428462                                                                                                                                040520101
413NOR AZIZAH HISAM         76081710560000000013800844003766902                                                                                                                                040520101
413RAJA KAMILATUL AZWA BINTI74091608622400000013600844004410662                                                                                                                                040520101
413KAMARIAH ABU BAKAR       82040908596400000013100844004694051                                                                                                                                040520101
413ROZLIN BINTI ZAMRI       80070408579000000013300844004980261                                                                                                                                040520101
413SHEIKH JAMADIL ADZANY B A84030508531900000022600844005011901                                                                                                                                040520101
413MOHD SYRIZ BIN AZLI      77092808596300000007800844014768111                                                                                                                                040520101
413MOHD SYRIZ BIN AZLI      77092808596300000005800844015196881                                                                                                                                040520101
413MURNI BINTI ISMAIL       86112738653200000014990844015345871                                                                                                                                040520101
413RIZA AZWAN MUHAMMAD      78081614528900000013000844015826011                                                                                                                                040520101
413NORMALA BT MD SANI       RF129613    00000012000846003241162                                                                                                                                040520101
413MR SHAFUL RIZAL ZAINOL   72050302517700000017800846004677011                                                                                                                                040520101
413MR SHAFUL RIZAL ZAINOL   72050302517700000004800846004900871                                                                                                                                040520101
413MS LOH WEE SEE           75060206511200000020000849005916231                                                                                                                                040520101
413EDZREZAM BIN HUSSIN      86121129587900000007000849006044222                                                                                                                                040520101
413MOKHTAR BIN MOHAMMAD     62090611529100000009000849006062751                                                                                                                                040520101
413MEGAT RAZEEM ABD RAZAK   74051914508300000031500849007681761                                                                                                                                040520101
413MARIMUTHU RAMASAMY       79060506525300000015000849008543161                                                                                                                                040520101
413MDM FADILAH YUSOF        65072801616600000020000894000515734                                                                                                                                040520101
413MDM FADILAH YUSOF        65072801616600000020000894000515734                                                                                                                                040520101
413RAFIZAH BINTI A RAHMAN   73092214509200000023000894000718862                                                                                                                                040520101
413MR HAIZAM IBRAHIM        77101714585100000011100894001345521                                                                                                                                040520101
413KATHLEEN LEONTINE HENDRIC76092210594400000006000894001370891                                                                                                                                040520101
413NURUL ANIZA RAHAYU BINTI 82021311531600000014200894001409331                                                                                                                                040520101
413MR HAMDAN KHALID         64031507579100000020100894001427071                                                                                                                                040520101
413ALIZAH ABD RAHMAN        69010101611800000015000894001468241                                                                                                                                040520101
413ABD MULUK B HJ RAMBLI    63060713577700000022800894001497361                                                                                                                                040520101
413MR HAMDAN KHALID         64031507579100000011530894002266141                                                                                                                                040520101
413MALARMATHY A/P PERUMAL   81032914561400000026000894002501601                                                                                                                                040520101
413IZYANI BT MOHD ARIFFIN   78100903550400000011280894002555431                                                                                                                                040520101
413SHAH EFFENDY BIN WAHYU   82081414599100000020000894002615831                                                                                                                                040520101
413ZAIRIZAN BIN MOHAMAD @ YU82071001562300000006140895003339551                                                                                                                                040520101
413ZAIRIZAN BIN MOHAMAD @ YU82071001562300000005150895003339721                                                                                                                                040520101
413MD HASRI BIN KASIREN     78071801654700000005200896001102401                                                                                                                                040520101
413SUMARNI BINTI SURAJI     79061910526000000037000897010304901                                                                                                                                040520101
413NOORUL SYUHAIDA          78092614503600000007800898001075521                                                                                                                                040520101
413MS NORLITA UJUD          75123105548800000011500898009006001                                                                                                                                040520101
413MS NORLITA UJUD          75123105548800000006500898009183241                                                                                                                                040520101
413SHARON                   75112314573400000020000954000117401                                                                                                                                040520101
413NURHIDAYAH BINTI SUKAIMAN85011410516000000011000954000120041                                                                                                                                040520101
413SUHAIDA MASTOR           76042401714000000013000954000764641                                                                                                                                040520101
413ABDUL HALIL BIN ABDUL RAH76120314523100000017500954000817411                                                                                                                                040520101
413NORASHIKIN BINTI MOHD AMI70120910583400000024600954000929231                                                                                                                                040520101
413MICHELE OOI KEAT LOOI    74103007540800000013700954000999831                                                                                                                                040520101
413MR HASHIM MOHD YUSOFF    6867554     00000025000954001066021                                                                                                                                040520101
413ARAFATIZAD ABD MALEK     74111514508100000025000954001194271                                                                                                                                040520101
413KULIDEEP KAUR A/P NARANJA76050708555200000040000954001410051                                                                                                                                040520101
413NAQIUYAH BINTI OMAR      81051508647800000019700954001482271                                                                                                                                040520101
413SHAH EFFENDY BIN WAHYU   82081414599100000016500954001491411                                                                                                                                040520101
413NORLIZA BINTI KAMARUDDIN 64111805551800000065000954001498351                                                                                                                                040520101
413MDM FADILAH YUSOF        65072801616600000022000954001642501                                                                                                                                040520101
413MDM FADILAH YUSOF        65072801616600000022000954001642501                                                                                                                                040520101
413KULIDEEP KAUR A/P NARANJA76050708555200000007000954001781201                                                                                                                                040520101
413NOOR DASIMA BINTI BAHARUM80031514579600000023000954001868071                                                                                                                                040520101
413NOR HAZILA HALID         76102114522200000023300954001887891                                                                                                                                040520101
413NORMILLA BINTI ISMAIL    72040514502800000020000954001924441                                                                                                                                040520101
413KULIDEEP KAUR A/P NARANJA76050708555200000010000954001941061                                                                                                                                040520101
413KHAIRUL AZNAH BINTI HASAN81091808564800000013000954001984501                                                                                                                                040520101
413FADLIZAM BIN MUHAMAD     77031410526100000018200954002222071                                                                                                                                040520101
413SUHAILA BINTI SHAFI'UDDIN89041214589600000015000954002279151                                                                                                                                040520101
413FAHIZUL HELMY HJ ISMAIL  80122408639300000020000956000019421                                                                                                                                040520101
413LIM KOK SENG             75022801630100000006400957000415451                                                                                                                                040520101
413ABD MULUK B HJ RAMBLI    63060713577700000013800967000011011                                                                                                                                040520101
413WAN HAPIZAH BINTI WAN ABD77040206570600000010000973000215992                                                                                                                                040520101
413WAN HAPIZAH BINTI WAN ABD77040206570600000020000973000215992                                                                                                                                040520101
413SITI SARINAH MOHD SALLEH 74050607586400000007000975000834981                                                                                                                                040520101
413ABDUL RAHIM BIN MOHAMAD A73021407528100000022100975000856331                                                                                                                                040520101
413ZHALINI BINTI SHAARI     71082709515600000014500975001733041                                                                                                                                040520101
413NORSYAHIRA ATIQAH BT MUHA78121408534000000005000977000250331                                                                                                                                040520101
413CHANG CHEW LOONG         67100208541300000005400977000254221                                                                                                                                040520101
413BAHARI BIN MAT HARUN @ HA73070911544100000010000816013769991                                                                                                                                040520101
4130000241000000385311600042281                                                                                                                                                                        9
